:100000001CC043C020C728CAD9C9ADC93EC03DC025
:100010004ECA3BC090CA80CA70CA29C736C035C014
:1000200034C033C032C031C030C080C72EC02DC0F4
:100030002CC04DC73E003EC0800011241FBECFEF34
:10004000CDBFDFE3DEBFE4E3F0E040E017C0B591F1
:10005000A59135912591059107FD0CC0959185914C
:10006000EF01F92FE82F05900D92A217B307D9F7EA
:10007000FE0104C01D92A217B307E1F7E933F407AC
:0A00800031F783D7F5CEF894FFCFD7
:02008A00BACFEB
:10008C0086B1EEE3FEE3838383818F738383938155
:10009C0081819813E0C080913E3E8823A1F180813C
:1000AC008150808380818111EEC0E2E2FEE3808189
:1000BC008260808380818E7F8083EEE3FEE3928179
:1000CC008181981709F4DFC081818283A2E2BEE3AB
:1000DC008C9188608C9383818F3349F41092423ECB
:1000EC001092433EFD0180818B7F8083089586E9C9
:1000FC0090E08093423E9093433EE2E2FEE38081A7
:10010C008460808308958091223E81FF3CC0809161
:10011C00223E80FD38C08091223E82FF34C0809107
:10012C00223E86FD30C08091423E9091433E892B09
:10013C0009F4A9C0EEE3FEE38481958101978483E1
:10014C00958384819581892B09F09DC0E2E2FEE3C1
:10015C0080818064808380818F778083E3E2FEE3FB
:10016C0080818E7F808380818D7F808380818B7F57
:10017C0080838081877F808384E690E08093423EF9
:10018C009093433E08958091223E81FF32C080912E
:10019C00223E80FD2EC08091223E82FF2AC080919B
:1001AC00223E86FF26C08091233E80FD22C0809196
:1001BC00423E9091433E892B09F465C0EEE3FEE389
:1001CC008481958101978483958384819581892B82
:1001DC0009F059C0E3E2FEE3808181608083808175
:1001EC008D7F808386E990E08093423E9093433EDE
:1001FC0008958091223E81FF46C08091223E80FD71
:10020C0042C08091223E82FF3EC08091223E86FFFA
:10021C003AC08091233E80FF36C08091233E82FD00
:10022C0032C08091423E9091433E892B61F1EEE3C6
:10023C00FEE38481958101978483958384819581E4
:10024C00892B09F5E3E2FEE3808184608083808161
:10025C00877F80830895EEE3FEE3838181838AE0C8
:10026C00808314821582E2E2FEE380818F7B80839F
:10027C0080818F778083E3E2FEE380818E7F8083B1
:08028C0080818D7F80830895BD
:1002940086B1EEE3FEE3838383818F73838380914E
:1002A400223E80FD33C0E2E2FEE3808180618083F0
:1002B400AEE3BEE313968C91139711968C9311972A
:1002C40080818160808380818D7F80838AE08C93AC
:1002D40080818460808314961D921C92159780817E
:1002E4008F7B808380818F778083E3E2FEE380814C
:1002F4008E7F808380818D7F808313968C918F3352
:0E03040029F4E2E2FEE380818B7F808308957E
:10031200E0E4FAE080E091E0848795871286138614
:1003220011821086148281E085831682118680E410
:06033200808380E00895C5
:0A0338008093193E90931A3E089539
:0C034200E0E0F0E11182138280E00895F9
:10034E00E0E2F8E0948180E883838091143E82306D
:10035E0029F0E091113EF091123E9083E0E1FEE330
:10036E00A181B2819D012F5F3F4F21833283813066
:10037E0019F011969C9101C090E0E0E1FEE38381BB
:10038E0081508383882319F0909324080895E0E127
:10039E00FEE383E080830780F085E02D309709F03F
:0403AE000995089510
:0C03B200E0E2F8E0808181608083089523
:1003BE00E0E2F8E081E2808384E081831282A0E1B2
:1003CE00BEE31C9287EA91E015968D939C93169747
:0603DE00138280E0089587
:0403E40057CF089552
:0A03E8008093023E9093033E0895B7
:0403F20050CF08954B
:0A03F6008093043E9093053E0895A5
:0404000049CF089543
:0A0404008093063E9093073E089592
:10040E008091080480931B3E80911B3E84FD03C0A7
:08041E00000000000000089539
:0A0426008093003E9093013E08957C
:0404300031CF08952B
:0A0434008093083E9093093E08955E
:02043E0008951F
:0A04400080930E3E90930F3E089546
:04044A0024CF08951E
:0A044E0080930A3E90930B3E089540
:040458001DCF089517
:0A045C0080930C3E90930D3E08952E
:10046600CF93DF93C0E0D4E08AEC8883A0E2B4E0C7
:100476001C92E0E4F4E085E080831C8214961C92D2
:1004860014971482188A198A1A8A1B8A83E08C8B1D
:100496001D8A1E8A1F8A89E050968C935097519622
:1004A6008C93519752968C93529753968C9353975D
:1004B60054968C93549755968C93559756961C92B2
:1004C600569757961C92108A8BE0818B88E0828B18
:1004D600838B148A158A168A178AE0E0F2E0108266
:1004E60011821282138282EF91E07BDF85E292E035
:1004F600ABDF80E092E083DF89EF91E079DF8CE289
:1005060092E0A9DF88E192E092DF87E092E088DF5F
:0C0516008FE192E092DFDF91CF91089519
:0C052200E0E0FAE08385816083870895A3
:08052E0081E080930A0A0895A0
:10053600E0E0FAE081E090E080A791A782A793A788
:1005460084A795A710A211A2118212821382148287
:10055600158216821782168611868287138627EAE7
:0E05660031E626A337A31786808380E0089530
:10057400000000000000D3DF80911C3E8160809366
:100584001C3E8091273E80FF11C0E5E2FEE380819E
:100594008F5F808391818081981308C0E7E2FEE336
:0E05A40080818E7F80838081826080830895B5
:1005B2001092243E8091223E83FF42C2E2E2FEE399
:1005C2008081877F808380818E7F808381E080939A
:1005D200933E80912A3E8E7F80932A3E8091403EB8
:1005E200873309F464C038F48F3109F4C2C08F3202
:1005F20009F4A6C0DAC08D3321F18E3321F08B339A
:1006020009F0D3C039C08091403EEBE2FEE3808125
:100612008F7E808380912A3E82FF06C08160809314
:100622002A3E10927C3E08C083FF04C080E880937B
:100632007C3E02C010927C3E81E08093243E82E0A8
:10064200B5C0EBE2FEE380818F7E808380912A3EFB
:1006520082FF06C0816080932A3E10927C3E08C0D1
:1006620083FF04C080E880937C3E02C010927C3EEF
:1006720081E08093243E9AC08091403E81E0809345
:10068200243E80912A3E82FF07C0816080932A3EE9
:1006920010927C3E83E08AC083FF05C080E880938D
:1006A2007C3E83E083C010927C3E83E07FC08091D9
:1006B200403E8091753E882361F18091213E8823DE
:1006C20041F18091AE3E85FD16C0EEEAFEE3806206
:1006D200808380E48093943E87E08093283E10924A
:1006E200933E28DAFBD988EE93E08093913E909373
:1006F200923E85E05BC01092213EEEEAFEE38081ED
:100702008F7D8083F1D91092913E1092923E85E0C6
:100712004DC080912A3E82FF06C0816080932A3EAE
:1007220010927C3E08C083FF04C080E880937C3E28
:1007320002C010927C3E81E08093243E85E036C068
:100742008091403E80912A3E82FF06C08160809364
:100752002A3E10927C3E08C083FF04C080E880934A
:100762007C3E02C010927C3E81E08093243E87E072
:100772001DC0EBE2FEE380818F7E808380912A3E62
:1007820082FF06C0816080932A3E10927C3E08C0A0
:1007920083FF04C080E880937C3E02C010927C3EBE
:1007A20081E08093243E80E001C080E09091243E6D
:1007B200992309F4C8C290912A3E9F7E90932A3EC3
:1007C20021E030E0082E02C0220F331F0A94E2F724
:1007D20081113FC080912B3E90912C3EA90148236C
:1007E2005923452B71F4282B392B20932B3E309320
:1007F2002C3E1092203EECE2FEE3808180688083F2
:1008020008954091203E4F5F4093203E433088F050
:100812002827392720932B3E30932C3EECE2FEE32F
:1008220080818F778083EBE2FEE380818F7E8083FD
:100832000895ECE2FEE3808180688083EEE3FEE3CC
:100842008281480F4283EBE2FEE380818F7E8083C8
:100852000895813009F040C080912B3E90912C3E4A
:10086200A90148235923452B71F4282B392B2093B6
:100872002B3E30932C3E10921F3EECE2FEE3808131
:1008820080688083089540911F3E4F5F40931F3ED2
:10089200433088F02827392720932B3E30932C3E73
:1008A200ECE2FEE380818F778083EBE2FEE38081DE
:1008B2008F7E80830895ECE2FEE3808180688083EE
:1008C200EEE3FEE38281847F480F4283EBE2FEE3A4
:1008D20080818F7E808308958330B9F580912B3E8D
:1008E20090912C3EA90148235923452B71F4282BC2
:1008F200392B20932B3E30932C3E10921E3EECE27D
:10090200FEE3808180688083089540911E3E4F5FA0
:1009120040931E3E433060F02827392720932B3E18
:1009220030932C3EECE2FEE380818F778083089542
:10093200413021F48CEA8093403E0895423009F020
:1009420002C28DEA8093403E0895853081F510926F
:100952001F3E1092203EEBE2FEE380818E778D7F78
:10096200808380912B3E90912C3EA90148235923EC
:10097200452B61F4282B392B20932B3E30932C3EB0
:10098200ECE2FEE38081806880830895282739277E
:1009920020932B3E30932C3EECE2FEE380818F7756
:1009A2008083EBE2FEE380818F7E8083089587302F
:1009B20051F510921F3E1092203EEBE2FEE3808141
:1009C2008C7F8F7D808380912B3E90912C3E82275D
:1009D200932780932B3E90932C3E8F7E8083809131
:1009E2002B3E90912C3E28233923232B31F0ECE22D
:1009F200FEE38081806880830895ECE2FEE38081DB
:100A02008F7780830895823009F09DC180912B3EBB
:100A120090912C3E8227932780932B3E90932C3EDD
:100A220028233923232B31F0ECE2FEE38081806816
:100A320080830895ECE2FEE380818F7780830895BE
:100A42008091223E86FF16C18091223E88230CF4BB
:100A520011C1E2E2FEE380818068808381E08093BD
:100A6200933E10921D3E80913F3E873309F472C03F
:100A720030F48F3109F455C08F3211F18AC08B33B3
:100A820019F08D33B1F185C08BE38093403E81E054
:100A92008093243E80912A3E82FF07C0816080932A
:100AA2002A3E10927C3E84E075C083FF05C080E838
:100AB20080937C3E84E06EC010927C3E84E06AC0EB
:100AC20081E08093243E80912A3E82FF07C08160AC
:100AD20080932A3E10927C3E88E05CC083FF05C072
:100AE20080E880937C3E88E055C010927C3E88E08E
:100AF20051C080912A3E91E09093243E97E39093D7
:100B0200403E90912C3E8B7D8160806480932A3E92
:100B1200892F8F778B7F80932C3E10927C3E8AE0C8
:100B220039C080912A3E91E09093243E97E39093BE
:100B3200403E90912C3E80628B7F816080648093E6
:100B42002A3E892F8F778D7F80932C3E10927C3E98
:100B520089E020C088E38093403E80912A3E82FF54
:100B620006C0816080932A3E10927C3E08C083FFBB
:100B720004C080E880937C3E02C010927C3EEBE28F
:100B8200FEE380818062808381E08093243E86E060
:100B920001C080E09091243E992309F4D4C0909141
:100BA2002A3E906190932A3E21E030E0082E02C056
:100BB200220F331F0A94E2F7843079F480912B3E9E
:100BC20090912C3E8227932780932B3E90932C3E2C
:100BD2001092203E10921F3E39C0883051F4EBE251
:100BE200FEE38081806880831092203E10921F3E37
:100BF2002DC08A3051F41092203E10921F3E8091F7
:100C02002A3E8F7E80932A3E21C0893051F4109271
:100C1200203E10921F3E80912A3E8F7E80932A3E74
:100C220015C0863099F41092203E10921F3E80919A
:100C32002A3E8F7E80932A3E80912B3E90912C3EBD
:100C4200822B932B80932B3E90932C3E80912B3EB4
:100C520090912C3E28233923232B31F0ECE2FEE342
:100C62008081806880830895ECE2FEE380818F7743
:100C7200808308958091233E80FF34C08091233E7B
:100C820081FD30C0E3E2FEE380818260808381E007
:100C92008093933E10921D3E80913F3E8733C1F474
:100CA20080912A3E91E09093243E97E39093403EB8
:100CB200EBE2FEE391819F7791838F7D8560806473
:100CC20080932A3E80818F7B8F7D808310927C3E31
:100CD2008091243E8823B9F180912A3E8F7E8093B1
:100CE2002A3E08958091233E82FF2DC08091233EAB
:100CF20083FD29C0E3E2FEE380818860808381E096
:100D02008093933E10921D3E80913F3E873391F433
:100D1200EBE2FEE380818F7D8F7B8083ECE2FEE35A
:100D22008081877F808381E08093243E1092933E6E
:100D320080931D3E8091243E882329F080912A3E93
:080D42008F7E80932A3E089584
:0E0D4A0040E068ED80E590E087D880E00895F5
:100D580040E068ED88E790E080D840E068ED8CE7F7
:100D680090E07BD840E068ED80E790E076D841E0FD
:100D780068ED81E690E071D840E068ED80E690E0AB
:100D88006CD840E068ED82E690E067D880E008958E
:100D980040E068ED80E890E060D8E0E8F0E0118697
:060DA800108680E00895B2
:100DAE0040E068ED80E191E055D8E0E1F1E012829B
:060DBE00138280E008959D
:100DC40050DBE8DFC7DFBFDFF8DAB3DBB8DAEDDF2B
:040DD4009ECA089516
:100DD80015992EC010921404E5E0F4E080E28083B7
:100DE80080E4808380E880930604E5E2FEE31082D5
:100DF8008AE08183E7E2FEE380818D7F80838081C2
:100E0800816080838091273E81FFFCCF8AEE8093AA
:100E1800000410920102CFDA809123088111809199
:100E28002408C3DA81E08093220882E080931404C6
:0E0E380084EF91E08093913E9093923E089556
:100E46001F920F920FB60F9211248F9381E0809319
:0E0E56008A008F910F900FBE0F901F9018957D
:0A0E640080934A0A90934B0A089508
:100E6E001F920F920FB60F9211242F933F934F9311
:100E7E005F936F937F938F939F93AF93BF93EF93F4
:100E8E00FF938091460A80FF0AC0E091193EF091CF
:100E9E001A3E309709F0099581E08093460AFF913A
:100EAE00EF91BF91AF919F918F917F916F915F91D4
:100EBE004F913F912F910F900FBE0F901F9018954D
:100ECE001F920F920FB60F9211248F9381E0809391
:0E0EDE0004108F910F900FBE0F901F9018956B
:100EEC00E0E1FEE381839283638381E0848382E08B
:080EFC0080834093240808954F
:100F0400E0E1FEE381839283638322E024832083F0
:0A0F1400FC018081809324080895F9
:0E0F1E009091103E81E0933009F080E008953C
:100F2C001F920F920FB60F9211242F933F934F9352
:100F3C005F936F937F938F939F93AF93BF93EF9335
:100F4C00FF93E091153EF091163E309709F009950C
:100F5C00FF91EF91BF91AF919F918F917F916F9185
:100F6C005F914F913F912F910F900FBE0F901F905B
:020F7C001895C6
:0C0F7E00E0E2F8E080818E7F808308951F
:100F8A001CDF1092273E1092243EC1E0C093933E8C
:100F9A0080E48093293E10927C3E10922B3E109260
:100FAA002C3E1092203E10921F3EA0E0B1E118960E
:100FBA008C911897E7E8FEE38F77808319968C91D6
:100FCA00199781831A968C911A9782831B968C9112
:100FDA001B9783831C968C9184839EDAA3DACADFDB
:100FEA001092220880E28093060489B18E7F89B923
:100FFA008EEE80930004109201028BE29BE097D957
:10100A0083E59CE018DA1092BF3E1092843E84E099
:10101A00809345041092753E1092223E1092233E10
:10102A00E2E2FEE3808182608083EEE3FEE38FE307
:10103A0081838181828310921C3E10921D3E789496
:10104A00C093933E73D546D580912A3E846080939F
:10105A002A3E51990DC08091753E811116C081E0DA
:10106A008093753E8093213E89E0809353040DC09E
:10107A008091753E882349F01092753E1092213E68
:10108A0088E0809353041092AE3E80911C3E80FF0C
:10109A0006C180911C3E8E7F80931C3E8091443E07
:1010AA00803809F083C08091080480931B3E8091A8
:1010BA001B3E84FD59C08091AE3E85FD55C055D476
:1010CA0066D480911D3E882359F010921D3E88EC0B
:1010DA0090E08093913E9093923E8FD487D4D0C073
:1010EA0080912A3E982F9174903451F59091753ED3
:1010FA00911126C08F7B877F80932A3E10927C3E77
:10110A0082FD0BC085FF0EC080E880937C3E8091F3
:10111A002A3E886080932A3E05C080912A3E8160DB
:10112A0080932A3E80EC8093403EEBE2FEE381818D
:10113A008068818380912A3E826080932A3EA0C083
:10114A0080FF9EC080917C3E81119AC08091753E3D
:10115A00811196C080E880937C3E80912A3E8E7FE2
:10116A00826080932A3E8CC00000000000008091BB
:10117A00913E9091923E009709F482C02091AE3E32
:10118A0025FD06C001978093913E9093923E03C03D
:10119A0081E0809347048091913E9091923E892B01
:1011AA0009F06EC01092443E9BD46AC08091443EBE
:1011BA00803409F052C08091080480931B3E8091CC
:1011CA001B3E84FD12C0BFD398D3ABD383D3DFD3E6
:1011DA007ED380911C3E816080931C3E84EF91E017
:1011EA008093913E9093923E4BC08091913E909114
:1011FA00923E009709F444C001978093913E9093E0
:10120A00923E892BE9F580912A3E882314F568D409
:10121A0080912A3E8F7710927C3E8560826080930F
:10122A002A3E90EC9093403EEBE2FEE39181906877
:10123A00918390911C3E916090931C3E8F7E809387
:10124A002A3E81E08093933E80818F7D8F7B8083CD
:10125A0017C01092443E44D413C08091443E803259
:10126A0079F483D38091913E9091923E009741F018
:10127A0001978093913E9093923E892B09F430D442
:10128A008091223E81FD07C0E2E2FEE380818F7EEB
:10129A008083F7D604C08091223E82FDF2D68091E7
:1012AA00833E803829F41092833E8091A53E6BD507
:1012BA008091223E83FD1CC080912A3E81FD18C088
:1012CA008091223E86FF04C08091223E882384F4C6
:1012DA008091233E80FF04C08091233E81FF08C095
:1012EA008091233E82FF17C08091233E83FD13C065
:1012FA005BD98091243E811104C080912A3E81FFEE
:10130A00A8CE80912A3E8D7F80932A3E0FD41092D8
:10131A00243EE0D39ECE8091443E811111C080913B
:10132A00223E82FD0DC08091223E80FD09C080913F
:10133A00AE3E8B7329F485E080935000889589CE60
:10134A008091443E803229F08091AE3E8B7309F43D
:0C135A0080CE81E08093500088957BCE0F
:101366001F920F920FB60F9211242F933F934F9314
:101376005F936F937F938F939F93AF93BF93EF93F7
:10138600FF935B9B05C0E0910E3EF0910F3E0995E1
:101396008FEF8BB9FF91EF91BF91AF919F918F9195
:1013A6007F916F915F914F913F912F910F900FBE5B
:0613B6000F901F90189536
:1013BC001F920F920FB60F9211242F933F934F93BE
:1013CC005F936F937F938F939F93AF93BF93EF93A1
:1013DC00FF933B9B05C0E0910C3EF0910D3E0995AF
:1013EC003A9B05C0E0910A3EF0910B3E09953D9B5E
:1013FC0005C0E091083EF091093E09953C9B05C063
:10140C00E091063EF091073E0995399B05C0E091AD
:10141C00043EF091053E0995389B05C0E091023ED3
:10142C00F091033E09958FEF87B9FF91EF91BF9132
:10143C00AF919F918F917F916F915F914F913F9160
:0C144C002F910F900FBE0F901F9018956D
:101458001F920F920FB60F9211242F933F934F9321
:101468005F936F937F938F939F93AF93BF93EF9304
:10147800FF931C9B05C0E091003EF091013E099549
:101488008FEF83B9FF91EF91BF91AF919F918F91AA
:101498007F916F915F914F913F912F910F900FBE68
:0614A8000F901F90189543
:1014AE001F920F920FB60F9211242F933F934F93CB
:1014BE005F936F937F938F939F93AF93BF93EF93AE
:1014CE00FF9351D881E080930B0AFF91EF91BF916A
:1014DE00AF919F918F917F916F915F914F913F91BE
:0C14EE002F910F900FBE0F901F901895CB
:1014FA001F920F920FB60F9211248F9380E480935C
:0E150A000B0A8F910F900FBE0F901F90189537
:101518001F920F920FB60F9211248F9380E280933F
:0E1528000B0A8F910F900FBE0F901F90189519
:101536001F920F920FB60F9211248F9380E1809322
:0E1546000B0A8F910F900FBE0F901F901895FB
:10155400982F282F22952F7080E3820F8A3310F062
:1015640087E3820F292F2F7090E3920F9A3310F0A4
:0615740097E3920F0895B9
:10157A00CF93DF938DE08093953EC1E0E0E018C001
:10158A00D1E0DE0FF0E0E957F14C8081DEDF809395
:10159A00853E9093863EEC2FF0E0EB56F14C80832B
:1015AA00E1E0EC0FF0E0CE5FEB56F14C9083ED2FCB
:1015BA00E53030F3E1E0EC0FAC2FB0E0AB56B14CC4
:1015CA008DE08C93CE5FF0E0EB56F14C8AE080839D
:0A15DA00C093AC3EDF91CF9108955D
:1015E4009091AE3E91FD0EC0E5EAFEE316821582AF
:1015F400AEEABEE392609C93848381E48093400AC4
:0816040081E0089580E00895E3
:10160C008091AE3E982F9871F9F083FF07C0EEEAF7
:10161C00FEE3877F806180831092AD3EE091AD3E0A
:10162C00F0E0EB56F14C8081D7DF882369F0E5EAD6
:10163C00FEE380858F5F80879781891728F0EEEA1B
:0A164C00FEE380818F7E8083089505
:10165600CF93DF938091AE3E80FF7DC081E0809383
:101666004704539B05C0E5EAFEE383818F5F8383CE
:10167600E5EAFEE382818F5F8283883008F4B6C094
:1016860012828381863048F4833048F0EEEAFEE326
:1016960080818460808390E003C090E801C090E080
:1016A600E5EAFEE31382818181110DC0992339F0A9
:1016B600EEEAFEE3808184608E7F808397C08F5F31
:1016C6008093A63E93C08930B9F5992331F0EEEAAE
:1016D600FEE380818B7F808305C0EEEAFEE3808196
:1016E600846080838091AE3E82FF05C08091843EF7
:1016F6008F5F8093843EE091BF3E81E08E0F8093A2
:10170600BF3EF0E08091A53EE155F14C8083CEEAE4
:10171600DEE398819E7F988362DF88818A7119F45F
:1017260080E48093400A8091BF3E8F708093BF3ED5
:1017360080E88093833E5AC08F5FE5EAFEE38183AB
:1017460020812695920F9083893009F04FC081E061
:101756008093A73E4BC081FF49C08091AB3E81116B
:101766000CC08091AA3E811108C084E08093460493
:10177600E5EAFEE386818F5F86838091AB3E811129
:101786000DC09091AA3E993049F484E080934504B7
:10179600E5EAFEE386818F5F868328C08F5F8093AC
:1017A600AB3E883018F1E5EAFEE3168285818F5F4D
:1017B60085838A3059F4EEEAFEE380818D7F80834B
:1017C6008971A1F480E48093400A10C08091A93EFB
:1017D60080FF04C084E08093450403C084E08093C6
:1017E6004604E5EAFEE38481869584830CDFDF9177
:0417F600CF910895F2
:1017FA008AE280937D3E8091933E811109C0EDE794
:10180A00FEE3118281E082838383848315820895B3
:10181A00A7E8BEE38C91EDE7FEE390917C3E892B2D
:10182A00818311968C911197828312968C911297CB
:10183A00838313968C911397848314968C91858352
:02184A000895FF
:10184C0080E38093763E8091933E882321F08091B3
:10185C00753E882349F0E6E7FEE381E0818312823E
:10186C001382148285830895A7E8BEE38C91E6E782
:10187C00FEE390917C3E892B818311968C9111977C
:10188C00828312968C911297838313968C91139763
:0A189C00848314968C9185830895CF
:1018A6008091AE3E80FD14C081E080934504E5EA58
:1018B600FEE3118612821182138280E090E0CFDA75
:1018C600EEEAFEE380818160808381E48093400AB2
:0218D600089573
:0618D800F89478940895D5
:1018DE00E5E6FEE387E2808380E48183809306045D
:1018EE0062E070E0CF0107DB13DB8823E9F380E4CD
:0618FE008093050408952B
:10190400883008F087E08F5F90E490930604682F96
:1019140070E041E685E59EE3E7DAFFDA8823E9F340
:0819240080E48093050408959E
:10192C0080E48093060449E062E070E085E49EE385
:10193C00D7DAEFDA8823E9F380E480930504809109
:04194C00463E089576
:1019500080E48093060441E162E070E085E49EE368
:10196000C5DADDDA8823E9F380E480930504809109
:04197000463E089552
:1019740080E4809306044FEF61E070E085E49EE329
:10198400B3DACBDA8823E9F380E480930504809109
:04199400453E08952F
:1019980080E28093443EE6E0F4E080E88083A5E6B8
:1019A800BEE387E28C9380E711968C93119780E4CD
:1019B800808362E070E0CD01A1DAADDA8823E9F333
:1019C80080E480930504E6E0F4E090E8908391EEEB
:1019D8009093653E808361E070E085E69EE38EDA51
:0E19E8009ADA8823E9F380E4809305040895D9
:0E19F60080E48093443E80E8809305040895C9
:101A0400E5E6FEE383E2808383E0818380E48093E0
:101A1400060462E070E0CF0173DA7FDA8823E9F329
:101A240080E480930504E5E6FEE392E2908391E08E
:101A340091838093060462E070E0CF0161DA6DDA8D
:101A44008823E9F380E480930504E5E6FEE395E268
:101A5400908381838093060462E070E0CF0150DAC2
:101A64005CDA8823E9F380E4809305048093060418
:101A7400E5E6FEE381E3808387E0818362E070E052
:101A8400CF013EDA4ADA8823E9F380E4809305043F
:101A9400E5E6FEE396E290839EE09183809306045C
:101AA40062E070E0CF012CDA38DA8823E9F380E4CD
:101AB40080930504E5E6FEE390E290839FE0918342
:101AC4008093060462E070E0CF011ADA26DA8823F4
:0A1AD400E9F380E48093050408950F
:0C1ADE0080E88093443E80930504089546
:101AEA008091AE3E85FD1BC0159B08C0E0E0F4E086
:101AFA008EEE80831092010214823CDAE6E0F4E072
:101B0A0080E2808380E4808380E8808382E080832F
:101B1A0084E0808388E080831092443E089588ECB4
:0C1B2A0090E08093913E9093923E0895CD
:101B3600CF938091443E803409F4D4DF4AD9809112
:101B4600933E882321F02091753E222361F18091F6
:101B5600753E811103C082E28093403EEEE2FEE3D1
:101B660080EB8083AEE3BEE312968C91129780954C
:101B7600818312968C918283A7E8BEE38C9183833E
:101B860011968C911197848312968C911297858366
:101B960013968C911397868314968C91878387E08E
:101BA60080932D3E1EC080EA80932E3E9091403E4B
:101BB60080912C3E8078892B90912A3E94FF09C013
:101BC600211107C0EEE2FEE3982F90959183828360
:101BD60005C0EEE2FEE381838095828382E08093F6
:101BE6002D3E31DE80E48093060466E070E086E7F1
:101BF6009EE385D991D98823E9F3C0E4C09305040F
:101C060080E0F8DDC093060466E070E08DE79EE3B1
:101C160076D982D98823E9F380E480930504E5E642
:101C2600FEE39DE3908391E091838093060462E056
:101C360070E0CF0164D970D98823E9F380E48093FA
:101C460005048093060460912D3E6F5F60932D3EE0
:101C560070E08EE29EE353D95FD98823E9F380E4EE
:101C660080930504E5E6FEE393E2908393E0918397
:101C76008093060462E070E0CF0141D94DD98823F4
:101C8600E9F380E48093050485E28093653E8091C4
:101C9600933E81110DC08091AE3E85FF05C08091B7
:101CA600943E8093663E08C080E48093663E04C0FE
:101CB6008091293E8093663E80E48093060462E02C
:101CC60070E085E69EE31BD927D98823E9F380E4F3
:101CD6008093050486E28093653E8091AE3E85FF43
:101CE60006C08091283E80688093663E03C08FE0E0
:101CF6008093663E80E48093060462E070E085E6A9
:101D06009EE3FDD809D98823E9F380E4809305048E
:101D1600E5E6FEE390E290839EE0918380930604DD
:101D260062E070E0CF01EBD8F7D88823E9F380E4CE
:101D3600809305048091933E882329F1E5E6FEE32E
:101D460082E2808381E0818380E48093060462E0FE
:101D560070E0CF01D4D8E0D88823E9F380E48093FB
:101D66000504E5E6FEE394E2908395EF9183809384
:101D7600060462E070E0CF01C2D8CED88823E9F32A
:0A1D860080E480930504CF910895D6
:101D90008A3009F065C0000000000000E091BF3EFD
:101DA000E23009F05BC0E250E093BF3EF0E0E15565
:101DB000F14C80818435D9F028F48634C1F1833523
:101DC00049F04CC0833731F0843789F0863609F00A
:101DD00045C02DC0000000000000CFDBEEEAFEE3AE
:101DE00080818860808381E48093400A37C000004E
:101DF000000000008DE08093953E81E08093AC3E32
:101E0000EEEAFEE3808191E49093400A886080626C
:101E1000808380E48093943E1092933E8CDE5FDE5C
:101E200088EE93E08093913E9093923E17C000001D
:101E3000000000008DE08093953E81E08093AC3EF1
:101E4000EEEAFEE3808191E49093400A88608F7D02
:101E500080834BDE1092913E1092923E1092BF3ED4
:021E60000895E3
:081E6200FC0164BF40830895F8
:021E6A000895D9
:021E6C000895D7
:021E6E000895D5
:0E1E7000EC01FCDFFADFCE01FADFCE0100D07C
:021E7E0003D18E
:02000004008278
:090000000000020000C40700002A
:00000001FF
