:100000001CC038CF24CE14CC31CAE7CB33CF32CF8B
:100010008CCC30CF58CE48CE38CE53CB2BCF2ACF36
:1000200029CF28CF27CF26CF25CF2DCC23CF22CF26
:1000300021CF1CCE3E003EC0800011241FBECFEF5A
:10004000CDBFDFE3DEBFE4E3F0E040E017C0B591F1
:10005000A59135912591059107FD0CC0959185914C
:10006000EF01F92FE82F05900D92A217B307D9F7EA
:10007000FE0104C01D92A217B307E1F7E933F407AC
:0A00800031F7CFD389CEF894FFCFFB
:10008A001092B33E8091A43E83FF42C2E4EAFEE3AB
:10009A008081877F808380818E7F808381E08093C7
:1000AA00BD3E8091B63E8E7F8093B63E80917F3E64
:1000BA00873309F464C038F48F3109F4C2C08F322F
:1000CA0009F4A6C0DAC08D3321F18E3321F08B33C7
:1000DA0009F0D3C039C080917F3EE6EAFEE3808111
:1000EA008F7E80838091B63E82FF06C081608093B6
:1000FA00B63E1092BA3E08C083FF04C080E88093DF
:10010A00BA3E02C01092BA3E81E08093B33E82E0CA
:10011A00B5C0E6EAFEE380818F7E80838091B63E99
:10012A0082FF06C081608093B63E1092BA3E08C034
:10013A0083FF04C080E88093BA3E02C01092BA3EA0
:10014A0081E08093B33E9AC080917F3E81E08093A4
:10015A00B33E8091B63E82FF07C081608093B63E6F
:10016A001092BA3E83E08AC083FF05C080E880937C
:10017A00BA3E83E083C01092BA3E83E07FC080918A
:10018A007F3E8091B93E882361F18091B23E8823F7
:10019A0041F18091733E85FD16C0E3E7FEE380627C
:1001AA00808380E48093BE3E87E08093B43E1092C1
:1001BA00BD3E20D50BDE88EE93E08093AA3E909355
:1001CA00AB3E85E05BC01092B23EE3E7FEE380817E
:1001DA008F7D8083CBDB1092AA3E1092AB3E85E0E6
:1001EA004DC08091B63E82FF06C081608093B63EC4
:1001FA001092BA3E08C083FF04C080E88093BA3EDA
:10020A0002C01092BA3E81E08093B33E85E036C0C8
:10021A0080917F3E8091B63E82FF06C081608093C6
:10022A00B63E1092BA3E08C083FF04C080E88093AD
:10023A00BA3E02C01092BA3E81E08093B33E87E094
:10024A001DC0E6EAFEE380818F7E80838091B63E00
:10025A0082FF06C081608093B63E1092BA3E08C003
:10026A0083FF04C080E88093BA3E02C01092BA3E6F
:10027A0081E08093B33E80E001C080E09091B33E7C
:10028A00992309F4C8C29091B63E9F7E9093B63ED8
:10029A0021E030E0082E02C0220F331F0A94E2F751
:1002AA0081113FC08091A63E9091A73EA9014823A3
:1002BA005923452B71F4282B392B2093A63E3093D2
:1002CA00A73E1092B13EE7EAFEE380818068808310
:1002DA0008954091B13E4F5F4093B13E433088F05C
:1002EA00282739272093A63E3093A73EE7EAFEE364
:1002FA0080818F778083E6EAFEE380818F7E808328
:10030A000895E7EAFEE3808180688083EDE7FEE3F3
:10031A008281480F4283E6EAFEE380818F7E8083F2
:10032A000895813009F040C08091A63E9091A73E81
:10033A00A90148235923452B71F4282B392B2093E3
:10034A00A63E3093A73E1092B03EE7EAFEE38081D4
:10035A008068808308954091B03E4F5F4093B03EDD
:10036A00433088F0282739272093A63E3093A73EAA
:10037A00E7EAFEE380818F778083E6EAFEE3808105
:10038A008F7E80830895E7EAFEE380818068808318
:10039A00EDE7FEE38281847F480F4283E6EAFEE3CB
:1003AA0080818F7E808308958330B9F58091A63E3F
:1003BA009091A73EA90148235923452B71F4282B74
:1003CA00392B2093A63E3093A73E1092AF3EE7EA20
:1003DA00FEE380818068808308954091AF3E4F5F3D
:1003EA004093AF3E433060F0282739272093A63E3A
:1003FA003093A73EE7EAFEE380818F7780830895F2
:10040A00413021F48CEA80937F3E0895423009F00E
:10041A0002C28DEA80937F3E0895853081F510925D
:10042A00B03E1092B13EE6EAFEE380818E778D7F80
:10043A0080838091A63E9091A73EA9014823592323
:10044A00452B61F4282B392B2093A63E3093A73EE7
:10045A00E7EAFEE3808180688083089528273927A8
:10046A002093A63E3093A73EE7EAFEE380818F778A
:10047A008083E6EAFEE380818F7E80830895873059
:10048A0051F51092B03E1092B13EE6EAFEE3808149
:10049A008C7F8F7D80838091A63E9091A73E822794
:1004AA0093278093A63E9093A73E8F7E8083809168
:1004BA00A63E9091A73E28233923232B31F0E7EA61
:1004CA00FEE38081806880830895E7EAFEE3808105
:1004DA008F7780830895823009F09DC18091A63E6E
:1004EA009091A73E822793278093A63E9093A73E9A
:1004FA0028233923232B31F0E7EAFEE38081806841
:10050A0080830895E7EAFEE380818F7780830895E8
:10051A008091A43E86FF16C18091A43E88230CF4E4
:10052A0011C1E4EAFEE380818068808381E08093E0
:10053A00BD3E1092AE3E80917E3E873309F472C072
:10054A0030F48F3109F455C08F3211F18AC08B33E0
:10055A0019F08D33B1F185C08BE380937F3E81E042
:10056A008093B33E8091B63E82FF07C0816080933C
:10057A00B63E1092BA3E84E075C083FF05C080E89B
:10058A008093BA3E84E06EC01092BA3E84E06AC09C
:10059A0081E08093B33E8091B63E82FF07C08160BE
:1005AA008093B63E1092BA3E88E05CC083FF05C0D5
:1005BA0080E88093BA3E88E055C01092BA3E88E03F
:1005CA0051C08091B63E91E09093B33E97E39093E9
:1005DA007F3E9091A73E8B7D816080648093B63E7A
:1005EA00892F8F778B7F8093A73E1092BA3E8AE03D
:1005FA0039C08091B63E91E09093B33E97E39093D1
:10060A007F3E9091A73E80628B7F81608064809359
:10061A00B63E892F8F778D7F8093A73E1092BA3E80
:10062A0089E020C088E380937F3E8091B63E82FFB6
:10063A0006C081608093B63E1092BA3E08C083FF1E
:10064A0004C080E88093BA3E02C01092BA3EE6EA3D
:10065A00FEE380818062808381E08093B33E86E0FE
:10066A0001C080E09091B33E992309F4D4C09091DF
:10067A00B63E90619093B63E21E030E0082E02C06B
:10068A00220F331F0A94E2F7843079F48091A63E50
:10069A009091A73E822793278093A63E9093A73EE8
:1006AA001092B13E1092B03E39C0883051F4E6EA59
:1006BA00FEE38081806880831092B13E1092B03E42
:1006CA002DC08A3051F41092B13E1092B03E809102
:1006DA00B63E8F7E8093B63E21C0893051F4109287
:1006EA00B13E1092B03E8091B63E8F7E8093B63E68
:1006FA0015C0863099F41092B13E1092B03E8091A6
:10070A00B63E8F7E8093B63E8091A63E9091A73EDC
:10071A00822B932B8093A63E9093A73E8091A63E70
:10072A009091A73E28233923232B31F0E7EAFEE3F1
:10073A008081806880830895E7EAFEE380818F776D
:10074A00808308958091A53E80FF34C08091A53EA4
:10075A0081FD30C0E5EAFEE380818260808381E02A
:10076A008093BD3E1092AE3E80917E3E8733C1F4A7
:10077A008091B63E91E09093B33E97E390937F3E8B
:10078A00E6EAFEE391819F7791838F7D856080649D
:10079A008093B63E80818F7B8F7D80831092BA3E94
:1007AA008091B33E8823B9F18091B63E8F7E8093C3
:1007BA00B63E08958091A53E82FF2DC08091A53E48
:1007CA0083FD29C0E5EAFEE380818860808381E0B9
:1007DA008093BD3E1092AE3E80917E3E873391F467
:1007EA00E6EAFEE380818F7D8F7B8083E7EAFEE382
:1007FA008081877F808381E08093B33E1092BD3EE3
:10080A008093AE3E8091B33E882329F08091B63E14
:08081A008F7E8093B63E089525
:100822009BDA1092913E1092B33EC1E0C093BD3E5E
:1008320080E48093B53E1092BA3E1092A63E10928A
:10084200A73E1092B13E1092B03EA0E0B1E11896E0
:100852008C911897E0E6FEE38F77808319968C914E
:10086200199781831A968C911A9782831B968C9181
:100872001B9783831C968C918483A0DAE3DAA4DA33
:100882001092220880E28093060489B18E7F89B992
:100892008EEE809300041092010280E398E0A0DAC9
:1008A20084E69DE0BBDA1092BF3E1092BC3E84E02B
:1008B200809345041092B93E1092A43E1092A53E38
:1008C200E4EAFEE3808182608083EDE7FEE38FE36A
:1008D2008183818182831092AD3E1092AE3E7894E4
:1008E200C093BD3E8BD176DA8091B63E8460809310
:1008F200B63E51990DC08091B93E811116C081E07A
:100902008093B93E8093B23E89E0809353040DC038
:100912008091B93E882349F01092B93E1092B23EBE
:1009220088E0809353041092733E8091AD3E80FF25
:1009320006C18091AD3E8E7F8093AD3E8091B83EE0
:10094200803809F083C0809108048093AC3E809186
:10095200AC3E84FD59C08091733E85FD55C064D97B
:10096200DFD68091AE3E882359F01092AE3E88ECDD
:1009720090E08093AA3E9093AB3E43D405DAD0C078
:100982008091B63E982F9174903451F59091B93E72
:10099200911126C08F7B877F8093B63E1092BA3E1C
:1009A20082FD0BC085FF0EC080E88093BA3E809125
:1009B200B63E88608093B63E05C08091B63E8160A7
:1009C2008093B63E80EC80937F3EE6EAFEE381812F
:1009D200806881838091B63E82608093B63EA0C0DB
:1009E20080FF9EC08091BA3E81119AC08091B93E2B
:1009F200811196C080E88093BA3E8091B63E8E7F88
:100A020082608093B63E8CC000000000000080919E
:100A1200AA3E9091AB3E009709F482C02091733EAA
:100A220025FD06C001978093AA3E9093AB3E03C07A
:100A320081E0809347048091AA3E9091AB3E892B3E
:100A420009F06EC01092B83E95D76AC08091B83E48
:100A5200803409F052C0809108048093AC3E8091AA
:100A6200AC3E84FD12C0CED85BD8BAD8A6D858D630
:100A7200F1D98091AD3E81608093AD3E84EF91E0EB
:100A82008093AA3E9093AB3E4BC08091AA3E909138
:100A9200AB3E009709F444C001978093AA3E90931D
:100AA200AB3E892BE9F58091B63E882314F562D7D7
:100AB2008091B63E8F771092BA3E856082608093B5
:100AC200B63E90EC90937F3EE6EAFEE39181906819
:100AD20091839091AD3E91609093AD3E8F7E8093D5
:100AE200B63E81E08093BD3E80818F7D8F7B808387
:100AF20017C01092B83E3ED713C08091B83E8032E4
:100B020079F492D88091AA3E9091AB3E009741F041
:100B120001978093AA3E9093AB3E892B09F42AD782
:100B22008091A43E81FD07C0E4EAFEE380818F7ECE
:100B3200808391D104C08091A43E82FD8CD18091AA
:100B4200BB3E803829F41092BB3E80916A3EC6D3E8
:100B52008091A43E83FD1CC08091B63E81FD18C0E9
:100B62008091A43E86FF04C08091A43E882384F431
:100B72008091A53E80FF04C08091A53E81FF08C000
:100B82008091A53E82FF17C08091A53E83FD13C0D0
:100B92007BDA8091B33E811104C08091B63E81FF21
:100BA200A8CE8091B63E8D7F8093B63E27D010921C
:100BB200B33E10D99ECE8091B83E811111C0809172
:100BC200A43E82FD0DC08091A43E80FD09C08091AB
:100BD200733E8B7329F485E080935000889589CE0B
:100BE2008091B83E803229F08091733E8B7309F474
:0C0BF20080CE81E08093500088957BCE7F
:100BFE00CF938091B83E803409F4B6D6BDD480919F
:100C0E00BD3E882321F02091B93E222361F18091CF
:100C1E00B93E811103C082E280937F3EE0E0FEE3A5
:100C2E0080EB8083ADE7BEE312968C911297809590
:100C3E00818312968C918283A0E6BEE38C9183838E
:100C4E0011968C911197848312968C9112978583AD
:100C5E0013968C911397868314968C91878387E0D5
:100C6E008093B73E1EC080EA8093003E90917F3EF7
:100C7E008091A73E8078892B9091B63E94FF09C053
:100C8E00211107C0E0E0FEE3982F909591838283B7
:100C9E0005C0E0E0FEE381838095828382E080934D
:100CAE00B73E67D580E48093060466E070E083E883
:100CBE009EE311D85CD88823E9F3C0E4C093050401
:100CCE0080E003D6C093060466E070E089E89EE3F8
:100CDE0002D84DD88823E9F380E480930504E0E33D
:100CEE00FEE39DE3908391E091838093060462E09E
:100CFE0070E0CF01F0D73BD88823E9F380E48093EE
:100D0E000504809306046091B73E6F5F6093B73E13
:100D1E0070E080E09EE3DFD72AD88823E9F380E4F1
:100D2E0080930504E0E3FEE393E2908393E09183E6
:100D3E008093060462E070E0CF01CDD718D88823E7
:100D4E00E9F380E48093050485E28093303E809140
:100D5E00BD3E81110DC08091733E85FF05C080910F
:100D6E00BE3E8093313E08C080E48093313E04C085
:100D7E008091B53E8093313E80E48093060462E01C
:100D8E0070E080E39EE3A7D7F2D78823E9F380E4EF
:100D9E008093050486E28093303E8091733E85FFFA
:100DAE0006C08091B43E80688093313E03C08FE0D0
:100DBE008093313E80E48093060462E070E080E32D
:100DCE009EE389D7D4D78823E9F380E48093050482
:100DDE00E0E3FEE390E290839EE09183809306042D
:100DEE0062E070E0CF0177D7C2D78823E9F380E4C1
:100DFE00809305048091BD3E882329F1E0E3FEE354
:100E0E0082E2808381E0818380E48093060462E045
:100E1E0070E0CF0160D7ABD78823E9F380E48093ED
:100E2E000504E0E3FEE394E2908395EF91838093D3
:100E3E00060462E070E0CF014ED799D78823E9F31C
:0A0E4E0080E480930504CF9108951D
:100E580086B1EDE7FEE3838383818F738383938178
:100E680081819813E0C080917D3E8823A1F1808123
:100E78008150808380818111EEC0E4EAFEE38081A5
:100E88008260808380818E7F8083EDE7FEE392819C
:100E98008181981709F4DFC081818283A4EABEE3C7
:100EA8008C9188608C9383818F3349F41092813EB2
:100EB8001092823EFD0180818B7F8083089586E9B0
:100EC80090E08093813E9093823EE4EAFEE3808145
:100ED8008460808308958091A43E81FF3CC0809106
:100EE800A43E80FD38C08091A43E82FF34C080912A
:100EF800A43E86FD30C08091813E9091823E892B30
:100F080009F4A9C0EDE7FEE3848195810197848304
:100F1800958384819581892B09F09DC0E4EAFEE3DD
:100F280080818064808380818F778083E5EAFEE317
:100F380080818E7F808380818D7F808380818B7F7D
:100F480080838081877F808384E690E08093813EE0
:100F58009093823E08958091A43E81FF32C0809193
:100F6800A43E80FD2EC08091A43E82FF2AC08091BD
:100F7800A43E86FF26C08091A53E80FD22C08091B8
:100F8800813E9091823E892B09F465C0EDE7FEE32E
:100F98008481958101978483958384819581892BA8
:100FA80009F059C0E5EAFEE3808181608083808191
:100FB8008D7F808386E990E08093813E9093823E86
:100FC80008958091A43E81FF46C08091A43E80FD93
:100FD80042C08091A43E82FF3EC08091A43E86FF1D
:100FE8003AC08091A53E80FF36C08091A53E82FD23
:100FF80032C08091813E9091823E892B61F1EDE76C
:10100800FEE384819581019784839583848195810A
:10101800892B09F5E5EAFEE380818460808380817D
:10102800877F80830895EDE7FEE3838181838AE0EB
:10103800808314821582E4EAFEE380818F7B8083BB
:1010480080818F778083E5EAFEE380818E7F8083CD
:0810580080818D7F80830895E3
:10106000CF93DF938091733E80FF7DC081E08093BA
:101070004704539B05C0EAE6FEE383818F5F8383C9
:10108000EAE6FEE382818F5F8283883008F4B6C08F
:1010900012828381863048F4833048F0E3E7FEE330
:1010A00080818460808390E003C090E801C090E07C
:1010B000EAE6FEE31382818181110DC0992339F0A4
:1010C000E3E7FEE3808184608E7F808397C08F5F3B
:1010D00080936B3E93C08930B9F5992331F0E3E7F3
:1010E000FEE380818B7F808305C0E3E7FEE38081A0
:1010F000846080838091733E82FF05C08091BC3EF6
:101100008F5F8093BC3EE091BF3E81E08E0F809365
:10111000BF3EF0E080916A3EE05BF14C8083C3E724
:10112000DEE398819E7F9883E8D488818A7119F4E0
:1011300080E48093400A8091BF3E8F708093BF3ED1
:1011400080E88093BB3E5AC08F5FEAE6FEE381836E
:1011500020812695920F9083893009F04FC081E05D
:1011600080936C3E4BC081FF49C08091703E8111DD
:101170000CC080916F3E811108C084E080934604CA
:10118000EAE6FEE386818F5F86838091703E81115F
:101190000DC090916F3E993049F484E080934504EE
:1011A000EAE6FEE386818F5F868328C08F5F8093A7
:1011B000703E883018F1EAE6FEE3168285818F5F83
:1011C00085838A3059F4E3E7FEE380818D7F808355
:1011D0008971A1F480E48093400A10C080916E3E32
:1011E00080FF04C084E08093450403C084E08093C2
:1011F0004604EAE6FEE3848186958483E2D3DF91A8
:04120000CF910895ED
:10120400E0E3FEE383E2808383E0818380E48093F0
:10121400060462E070E0CF0163D5AED58823E9F31C
:1012240080E480930504E0E3FEE392E2908391E09E
:1012340091838093060462E070E0CF0151D59CD580
:101244008823E9F380E480930504E0E3FEE395E278
:10125400908381838093060462E070E0CF0140D5DF
:101264008BD58823E9F380E48093050480930604F6
:10127400E0E3FEE381E3808387E0818362E070E062
:10128400CF012ED579D58823E9F380E48093050432
:10129400E0E3FEE396E290839EE09183809306046C
:1012A40062E070E0CF011CD567D58823E9F380E4C0
:1012B40080930504E0E3FEE390E290839FE0918352
:1012C4008093060462E070E0CF010AD555D58823E7
:0A12D400E9F380E480930504089517
:1012DE008A3009F065C0000000000000E091BF3EBA
:1012EE00E23009F05BC0E250E093BF3EF0E0E05B1D
:1012FE00F14C80818435D9F028F48634C1F18335E0
:10130E0049F04CC0833731F0843789F0863609F0C6
:10131E0045C02DC000000000000065D1E3E7FEE3EC
:10132E0080818860808381E48093400A37C000000A
:10133E00000000008DE08093403E81E08093713E7E
:10134E00E3E7FEE3808191E49093400A8860806237
:10135E00808380E48093BE3E1092BD3E49DC34D53E
:10136E0088EE93E08093AA3E9093AB3E17C00000A8
:10137E00000000008DE08093403E81E08093713E3E
:10138E00E3E7FEE3808191E49093400A88608F7DCD
:10139E008083EAD21092AA3E1092AB3E1092BF3ECC
:0213AE000895A0
:1013B000CF93DF93C0E0D4E08AEC8883A0E2B4E06E
:1013C0001C92E0E4F4E085E080831C8214961C9279
:1013D00014971482188A198A1A8A1B8A83E08C8BC4
:1013E0001D8A1E8A1F8A89E050968C9350975196C9
:1013F0008C93519752968C93529753968C93539704
:1014000054968C93549755968C93559756961C9258
:10141000569757961C92108A8BE0818B88E0828BBE
:10142000838B148A158A168A178AE0E0F2E010820C
:101430001182128213828EE29FE0D8D486E39FE06D
:10144000F3D482E39FE0DCD480E39FE0D4D488E34C
:101450009FE0EFD484E39FE0DDD48FE79EE0D5D416
:0C1460008BE39FE0DCD4DF91CF91089576
:10146C001F920F920FB60F9211242F933F934F930D
:10147C005F936F937F938F939F93AF93BF93EF93F0
:10148C00FF933B9B05C0E0919E3EF0919F3E0995DA
:10149C003A9B05C0E0919C3EF0919D3E09953D9B89
:1014AC0005C0E0919A3EF0919B3E09953C9B05C08E
:1014BC00E091983EF091993E0995399B05C0E091D9
:1014CC00963EF091973E0995389B05C0E091943E6D
:1014DC00F091953E09958FEF87B9FF91EF91BF91F0
:1014EC00AF919F918F917F916F915F914F913F91B0
:0C14FC002F910F900FBE0F901F901895BD
:1015080086B1EDE7FEE3838383818F7383838091C4
:10151800A43E80FD33C0E4EAFEE3808180618083DD
:10152800ADE7BEE313968C91139711968C931197A0
:1015380080818160808380818D7F80838AE08C9325
:1015480080818460808314961D921C9215978081F7
:101558008F7B808380818F778083E5EAFEE38081BB
:101568008E7F808380818D7F808313968C918F33CB
:0E15780029F4E4EAFEE380818B7F80830895EE
:1015860015992EC010921404E5E0F4E080E2808301
:1015960080E4808380E880930604EFE8FEE310820F
:1015A6008AE08183E1E9FEE380818D7F808380810B
:1015B600816080838091913E81FFFCCF8AEE80938B
:1015C600000410920102D1D28091230881118091EA
:1015D6002408ECD381E08093220882E080931404EF
:0E15E60084EF91E08093AA3E9093AB3E08956F
:1015F400CF93DF938DE08093403EC1E0E0E018C0DC
:10160400D1E0DE0FF0E0E05AF14C8081C2D2809349
:10161400A83E9093A93EEC2FF0E0E05CF14C80836F
:10162400E1E0EC0FF0E0CE5FE05CF14C9083ED2F55
:10163400E53030F3E1E0EC0FAC2FB0E0A05CB14C4E
:101644008DE08C93CE5FF0E0E05CF14C8AE0808327
:0A165400C093713EDF91CF9108951D
:10165E00E0E2F8E0948180E883838091783E8230E6
:10166E0029F0E091753EF091763E9083E4E7FEE33B
:10167E00A181B2819D012F5F3F4F21833283813043
:10168E0019F011969C9101C090E0E4E7FEE383818E
:10169E0081508383882319F0909324080895E4E7FA
:1016AE00FEE383E080830780F085E02D309709F01C
:0416BE0009950895ED
:1016C2001F920F920FB60F9211242F933F934F93B5
:1016D2005F936F937F938F939F93AF93BF93EF9398
:1016E200FF938091460A80FF0AC0E091A23EF091EA
:1016F200A33E309709F0099581E08093460AFF9155
:10170200EF91BF91AF919F918F917F916F915F9177
:101712004F913F912F910F900FBE0F901F901895F0
:1017220080E28093B83EE6E0F4E080E88083A0E3C4
:10173200BEE387E28C9380E711968C93119780E445
:10174200808362E070E0CD01CCD217D38823E9F325
:1017520080E480930504E6E0F4E090E8908391EE63
:101762009093303E808361E070E080E39EE3B9D2E3
:0E17720004D38823E9F380E4809305040895EE
:1017800080E38093833E8091BD3E882321F0809149
:10179000B93E882349F0E3E8FEE381E081831282C9
:1017A0001382148285830895A0E6BEE38C91E3E85A
:1017B000FEE39091BA3E892B818311968C9111970B
:1017C000828312968C911297838313968C91139730
:0A17D000848314968C91858308959C
:1017DA001F920F920FB60F9211242F933F934F939C
:1017EA005F936F937F938F939F93AF93BF93EF937F
:1017FA00FF935B9B05C0E091A03EF091A13E099545
:10180A008FEF8BB9FF91EF91BF91AF919F918F911C
:10181A007F916F915F914F913F912F910F900FBEE2
:06182A000F901F901895BD
:101830001F920F920FB60F9211242F933F934F9345
:101840005F936F937F938F939F93AF93BF93EF9328
:10185000FF931C9B05C0E091923EF091933E099549
:101860008FEF83B9FF91EF91BF91AF919F918F91CE
:101870007F916F915F914F913F912F910F900FBE8C
:061880000F901F90189567
:101886001F920F920FB60F9211242F933F934F93EF
:101896005F936F937F938F939F93AF93BF93EF93D2
:1018A600FF93E091793EF0917A3E309709F00995E1
:1018B600FF91EF91BF91AF919F918F917F916F9122
:1018C6005F914F913F912F910F900FBE0F901F90F8
:0218D600189563
:1018D8008AE28093893E8091BD3E811109C0E9E882
:1018E800FEE3118281E082838383848315820895D5
:1018F800A0E6BEE38C91E9E8FEE39091BA3E892B1D
:10190800818311968C911197828312968C911297EC
:10191800838313968C911397848314968C91858373
:02192800089520
:10192A001F920F920FB60F9211242F933F934F934A
:10193A005F936F937F938F939F93AF93BF93EF932D
:10194A00FF939ED081E080930B0AFF91EF91BF91A4
:10195A00AF919F918F917F916F915F914F913F913D
:0C196A002F910F900FBE0F901F9018954A
:101976008091733E85FD1BC0159B08C0E0E0F4E036
:101986008EEE80831092010214821CD2E6E0F4E00F
:1019960080E2808380E4808380E8808382E08083A5
:1019A60084E0808388E080831092B83E089588ECB6
:0C19B60090E08093AA3E9093AB3E089511
:1019C2008091733E982F9871F9F083FF07C0E3E787
:1019D200FEE3877F806180831092723EE091723EC7
:1019E200F0E0E05CF14C808187D0882369F0EAE680
:1019F200FEE380858F5F80879781891728F0E3E770
:0A1A0200FEE380818F7E808308954B
:101A0C0040E068ED88E790E01CD240E068ED8CE7A0
:101A1C0090E017D240E068ED80E790E012D241E010
:101A2C0068ED81E690E00DD240E068ED80E690E054
:101A3C0008D240E068ED82E690E003D280E00895A1
:101A4C00E0E0FAE081E090E080A791A782A793A75D
:101A5C0084A795A710A211A211821282138214825C
:101A6C00158216821782168611868287138627EABC
:0E1A7C0031E626A337A31786808380E0089505
:101A8A0000000000000096D18091AD3E81608093F5
:101A9A00AD3E8091913E80FF11C0EFE8FEE3808168
:101AAA008F5F808391818081981308C0E1E9FEE30A
:0E1ABA0080818E7F808380818260808308958A
:101AC8008091733E80FD14C081E080934504EAE66E
:101AD800FEE3118612821182138280E090E0AAD17F
:101AE800E3E7FEE380818160808381E48093400A9C
:021AF80008954F
:101AFA009091733E91FD0EC0EAE6FEE316821582CE
:101B0A00A3E7BEE392609C93848381E48093400AB6
:081B1A0081E0089580E00895C8
:101B2200883008F087E08F5F90E490930604682F76
:101B320070E041E680E29EE3EDD01FD18823E9F315
:081B420080E48093050408957E
:101B4A00E0E4FAE080E091E08487958712861386C4
:101B5A0011821086148281E085831682118680E4C0
:061B6A00808380E0089575
:101B7000E0E2F8E081E2808384E081831282A4E7DE
:101B8000BEE31C928FE29BE015968D939C93169773
:061B9000138280E00895BD
:101B9600982F282F22952F7080E3820F8A3310F01A
:101BA60087E3820F292F2F7090E3920F9A3310F05C
:061BB60097E3920F089571
:101BBC00E0E3FEE387E2808380E481838093060484
:101BCC0062E070E0CF0188D0D3D08823E9F380E4C1
:061BDC008093050408954A
:101BE20080E48093060449E062E070E080E19EE3D5
:101BF20091D0C3D08823E9F380E4809305048091D7
:041C0200113E0895F2
:101C060080E48093060441E162E070E080E19EE3B7
:101C16007FD0B1D08823E9F380E4809305048091D6
:041C2600113E0895CE
:101C2A0080E4809306044FEF61E070E080E19EE378
:101C3A006DD09FD08823E9F380E4809305048091D6
:041C4A00103E0895AB
:101C4E001F920F920FB60F9211248F9381E0809303
:0E1C5E008A008F910F900FBE0F901F90189567
:101C6C001F920F920FB60F9211248F9381E08093E5
:0E1C7C0004108F910F900FBE0F901F901895BF
:101C8A001F920F920FB60F9211248F9380E48093C4
:0E1C9A000B0A8F910F900FBE0F901F901895A0
:101CA8001F920F920FB60F9211248F9380E28093A8
:0E1CB8000B0A8F910F900FBE0F901F90189582
:101CC6001F920F920FB60F9211248F9380E180938B
:0E1CD6000B0A8F910F900FBE0F901F90189564
:101CE400E4E7FEE381839283638322E024832083F9
:0A1CF400FC0180818093240808950C
:101CFE00809108048093AC3E8091AC3E84FD03C07D
:081D0E00000000000000089530
:101D1600E4E7FEE381839283638381E0848382E048
:081D2600808340932408089516
:101D2E0040E068ED80E890E08BD0E0E8F0E01186CE
:061D3E00108680E008950C
:101D440040E068ED80E191E080D0E0E1F1E01282D2
:061D5400138280E00895F7
:101D5A002ADBE8DF56DE06D006DF73DE1FD0EDDFB2
:041D6A00EFDE08950B
:0E1D6E0040E068ED80E590E06BD080E00895E5
:0E1D7C009091743E81E0933009F080E008956C
:0E1D8A0080E48093B83E80E8809305040895BD
:0E1D9800EC016FD06DD0CE016DD0CE016CD0BD
:0C1DA600E0E0F0E11182138280E008957B
:0C1DB200E0E2F8E0808181608083089509
:0C1DBE00E0E0FAE08385816083870895EF
:0C1DCA00E0E2F8E080818E7F80830895C5
:0C1DD60080E88093B83E809305040895D7
:0A1DE2008093A23E9093A33E089563
:0A1DEC008093943E9093953E089575
:0A1DF6008093963E9093973E089567
:0A1E00008093983E9093993E089558
:0A1E0A008093923E9093933E08955A
:0A1E140080939A3E90939B3E089540
:0A1E1E008093A03E9093A13E08952A
:0A1E280080939C3E90939D3E089528
:0A1E320080939E3E90939F3E08951A
:0A1E3C0080934A0A90934B0A089520
:081E460081E080930A0A08956F
:081E4E00FC0164BF408308950C
:061E5600F8947894089551
:041E5C0055DB0895B5
:041E600053DB0895B3
:041E640051DB0895B1
:041E68004FDB0895AF
:041E6C004DDB0895AD
:041E70004BDB0895AB
:021E7400C5C0E7
:021E76000895CD
:021E78000895CB
:021E7A000895C9
:021E7C000895C7
:021E7E0003D18E
:02000004008278
:090000000000020000C40700002A
:00000001FF
